:1000000051C100006BC1000069C1000067C1000060
:1000100065C1000063C1000061C100005FC1000054
:100020005DC100005BC100004EC700000C942E08AB
:1000300055C1000053C1000051C100004FC1000074
:100040004DC100004BC1000049C1000047C1000084
:1000500045C1000043C1000041C100003FC1000094
:100060003DC10000DAC4000039C1000037C1000002
:1000700035C1000033C1000031C100002FC10000B4
:100080002DC100002BC1000029C1000027C10000C4
:1000900025C1000023C1000021C100001FC10000D4
:1000A0001DC100001BC1000019C100006E616E007F
:1000B000696E660000407A10F35A00A0724E18096B
:1000C0000010A5D4E80000E87648170000E40B54BF
:1000D000020000CA9A3B000000E1F505000080968E
:1000E0009800000040420F000000A08601000000C0
:1000F000102700000000E80300000000640000007A
:1001000000000A00000000000100000000002C7642
:10011000D888DC674F0823DFC1DFAE59E1B1B7965D
:10012000E5E3E453C63AE651997696E8E6C28426BA
:10013000EB898C9B62ED407C6FFCEFBC9C9F40F296
:10014000BAA56FA5F490055A2AF75C936B6CF96712
:100150006DC11BFCE0E40D47FEF520E6B500D0EDD7
:10016000902E0300943577050080841E080000203F
:100170004E0A000000C80C333333330F986E1283DD
:100180001141EF8D2114893BE65516CFFEE6DB18B1
:10019000D1844B381BF77C1D901DA4BBE424203276
:1001A00084725E228100C9F124ECA1E53D2722037F
:1001B0004C0045004400200053004D004100520017
:1001C00054002000440052004900560045005200EF
:1001D00000002E034E004F00420055004F0020004B
:1001E00045004C0045004300540052004F004E00B3
:1001F00049004300530020004B002E004B002E000E
:1002000000000403090409023E00020100C0320993
:100210000400000102020100052400100104240270
:10022000060524060001070582030800FF090401F2
:1002300000020A00000007050402100005070583FC
:10024000021000051201100102000008A321102075
:1002500001000102DC016364696E6F707375785888
:100260005B65666745464700616E006E66696E694C
:10027000747900CDCCCC3D0AD7233C17B7D1387761
:10028000CC2B329595E6241FB14F0A000020410087
:1002900000C84200401C4620BCBE4CCA1B0E5AAED1
:1002A000C59D740011241FBECFEFDAE0DEBFCDBFC5
:1002B00011E0A0E0B1E0E8EFFEE202C005900D928F
:1002C000AE36B107D9F722E0AEE6B1E001C01D922B
:1002D000A531B207E1F77ED30C947A1791CECF9374
:1002E000DF93EC01F89428988FE891E00197F1F7FB
:1002F00000C00000CE0126E0959587952A95E1F78C
:100300008067CAD38C2F880F880FC6D3289A8FE8AE
:1003100091E00197F1F700C000007894DF91CF9150
:100320000895CF93DF93EC01F8942C988FE891E037
:100330000197F1F700C00000CE0126E09595879562
:100340002A95E1F78067A8D38C2F880F880FA4D354
:100350002C9A8FE891E00197F1F700C000007894A3
:10036000DF91CF910895CF93DF93F8942D988FE884
:1003700091E00197F1F700C0000080E08DD3C82F15
:10038000D0E0DC2FCC2780E087D32D9AEFE8F1E096
:100390003197F1F700C0000078949E01282BC90125
:1003A0009058DF91CF910895CF93DF93F8942E98D2
:1003B0008FE891E00197F1F700C0000080E06CD376
:1003C000C82FD0E0DC2FCC2780E066D32E9AEFE850
:1003D000F1E03197F1F700C0000078949E01282BDE
:1003E000C9019058DF91CF910895CF93DF93F8948E
:1003F0002F988FE891E00197F1F700C0000080E0AE
:100400004BD3C82FD0E0DC2FCC2780E045D32F9AE8
:10041000EFE8F1E03197F1F700C0000078949E0119
:10042000282BC9019058DF91CF91089590E49093C3
:100430007C0090917C00282F2F71922B90937C0050
:1004400010927B0090917B008072892B80937B00BF
:1004500087EC80937A0080917A0086FDFCCF8091B2
:1004600078002091790090E0922B937008958F92FC
:100470009F92AF92BF92CF92DF92EF92FF92BC0118
:1004800080E090E00E94650C20E030EC4FE754E4FF
:100490000E94FD0B20E030E040EA50E40E941B0D7A
:1004A0006B017C0125E935E640EF5FE30E941B0DFF
:1004B000A70196010E941B0DA70196010E941B0D2A
:1004C0004B015C012FE632E143E451E4C701B60180
:1004D0000E941B0DA70196010E941B0D9B01AC0100
:1004E000C501B4010E94940B4B015C012DE73FE371
:1004F00041E452E4C701B6010E941B0D9B01AC010F
:10050000C501B4010E94950B2FE23DED4BE052E492
:100510000E94940B6B017C0120E030E040EA52E441
:100520000E94170D18168CF020E030E040E251ECEC
:10053000C701B6010E94F90B87FF0DC0C12CD12C59
:1005400090E2E92E91ECF92E06C0C12CD12C80EA64
:10055000E82E82E4F82EC701B601FF90EF90DF90FD
:10056000CF90BF90AF909F908F9008950895089579
:1005700080E091E032C780E091E00C94E30A0895B6
:100580002F923F924F925F926F927F928F929F92A3
:10059000AF92BF92CF92DF92EF92FF920F931F9391
:1005A000CF93DF93CDB7DEB7C054D1090FB6F8941F
:1005B000DEBF0FBECDBF8E010F5F1F4F80E4F8017D
:1005C00011928A95E9F73090A0012090A1015090F6
:1005D000A2014090A30109DF782E692EE5DE982E56
:1005E000892EC1DEB82EA92E81E090E01FDF3FDF0B
:1005F000F62EE72ED82EC92E80E090E017DF37DFE9
:100600002F923F924F925F926F927F928F929F9222
:10061000AF92BF92CF92DF92EF92FF929F938F9310
:100620007F936F938BE191E09F938F931F930F9331
:100630000E94A4160FB6F894DEBF0FBECDBFF8011E
:1006400061918F01662321F080E091E0EBD6F7CF36
:10065000C05CDF4F0FB6F894DEBF0FBECDBFDF9199
:10066000CF911F910F91FF90EF90DF90CF90BF90AF
:10067000AF909F908F907F906F905F904F903F9042
:100680002F900895CF93DF93811524E0920738F4DB
:10069000EC0125DECD2B11F45E9801C05E9ADF914E
:1006A000CF910895CF93DF93811524E0920738F41A
:1006B000EC0137DECD2B11F45F9801C05F9ADF911A
:1006C000CF9108950F931F93CF93DF93F999FECFA6
:1006D00082E090E00E9454178C01F999FECF80E0EF
:1006E00090E00E945417EC01F999FECFB80186E022
:1006F00090E00E945917F999FECFBE0184E090E086
:100700000E945917C801BEDFCE01CCDF1093A301B0
:100710000093A201D093A101C093A001DF91CF91DA
:100720001F910F91089580E091E0FBD618167CF49C
:1007300090919101E92FF0E0E855FE4F80839F5F93
:10074000909391018A3019F481E08093900108958B
:10075000CF93DF9300D000D0CDB7DEB7809190016A
:10076000882309F4E2C01092900142E050E06AE46C
:1007700071E088EA91E00E941116892BD1F41A8267
:100780001982CE0101969F938F938DE491E09F9300
:100790008F9388EA91E09F938F930E94C41689817A
:1007A0009A8170DF89819A819093A3018093A2013D
:1007B00023C042E050E064E571E088EA91E00E94E5
:1007C0001116892B81F51A821982CE0101969F9309
:1007D0008F9387E591E09F938F9388EA91E09F93B1
:1007E0008F930E94C41689819A815CDF89819A81E6
:1007F0009093A1018093A00161E480E091E012D682
:1008000063E480E091E00ED66BE480E091E00AD6EC
:100810006AE080E091E006D60F900F900F900F9065
:100820000F900F9079C042E050E06EE571E088EAE9
:1008300091E00E941116892B11F4A2DE6DC042E0F6
:1008400050E061E671E088EA91E00E941116892B80
:1008500011F438DF4BC088EA91E02091A8012C34D4
:1008600009F04AC01C821B821A8219829E012F5FE6
:100870003F4F3F932F932E5F3F4F3F932F9324E69D
:1008800031E03F932F939F938F930E94C4166B8107
:100890007C810FB6F894DEBF0FBECDBF611594E02A
:1008A000790778F4F999FECF86E090E00E94591715
:1008B00086E090E00E94541793709093A301809378
:1008C000A20169817A816115A4E07A0778F4F99927
:1008D000FECF84E090E00E94591784E090E00E94EF
:1008E000541793709093A1018093A00161E480E07C
:1008F00091E098D563E405C06EE480E091E092D584
:1009000061E480E091E08ED56BE480E091E08AD5EF
:100910006AE080E091E086D580E2E8EAF1E0DF017C
:100920001D928A95E9F7109291010F900F900F9008
:100930000F90DF91CF9108950F931F93CF93DF9383
:1009400084B7877F84BF0FB6F894A8958091600024
:10095000886180936000109260000FBE90E080E894
:100960000FB6F89480936100909361000FBE84B13C
:10097000816F84B98AB1806C8AB985B1816F85B97C
:100980008BB1806C8BB982D060E875E280E090E03A
:100990002FD0F999FECF86E090E00E9454178C0189
:1009A0001370F999FECF84E090E00E945417EC0197
:1009B000D3701093A3010093A201D093A101C0931F
:1009C000A001C8015FDECE016DDEDF91CF911F91E6
:1009D0000F915CC2B1DF62E971E080E091E0DFD5A8
:1009E0007894B6DEA0DE80E091E085D5DCD4F9CF46
:1009F0009B01AC0160E472E48FE090E00E94BA14C5
:100A0000215031093093CD002093CC0086E08093B3
:100A1000CA0088E98093C90008951F920F920FB60B
:100A20000F9211242F933F938F939F93EF93FF93F4
:100A30008091C80082FD1DC08091C80084FD19C04E
:100A40008091C80083FD15C02091CE008091A70140
:100A500090E001968F7199273091A601381759F0CF
:100A6000E091A601F0E0E853FE4F20838093A701B8
:100A700002C08091CE00FF91EF919F918F913F91A5
:100A80002F910F900FBE0F901F90189584B1866024
:100A900084B98DE58CBD08958EBD00000DB407FEB0
:100AA000FDCF8EB50895292F33272230310559F017
:100AB0002330310569F021303105E9F482E190E01D
:100AC00024E432E01CC08EE390E026E032E017C060
:100AD00099278130910549F028F0029761F4EEEAF8
:100AE000F1E005C0E2E0F2E002C0E2EDF1E0849165
:100AF00090E09F0104C080E090E020E030E0FA0147
:100B00003183208308952091130230911402261717
:100B1000370748F06115710539F42091E8002E7708
:100B20002093E80001C0B901FC0120E061157105C6
:100B300079F180910C028823F1F18530F1F18091F7
:100B4000E80083FD3CC08091E80082FD2EC08091CA
:100B5000E80080FFEBCF2091F3008091F20090E05D
:100B6000922B6115710551F08830910538F421916F
:100B70002093F100615071090196F3CF21E00897AD
:100B800009F020E08091E8008E778093E800CECFD6
:100B90002111CFCF0AC080910C02882361F08530EB
:100BA00061F08091E80083FD0AC08091E80082FF37
:100BB000F2CF80E0089582E0089583E0089581E017
:100BC000089520911302309114022617370748F038
:100BD0006115710539F42091E8002E772093E80023
:100BE00001C0B901FC0120E06115710591F180910E
:100BF0000C02882309F440C0853009F43FC080917D
:100C0000E80083FD3DC08091E80082FD2FC0809107
:100C1000E80080FFE9CF2091F3008091F20090E09E
:100C2000922B6115710559F08830910540F424919B
:100C30002093F1003196615071090196F2CF21E0C5
:100C4000089709F020E08091E8008E778093E80013
:100C5000CBCF2111CCCF0AC080910C02882361F048
:100C6000853061F08091E80083FD0AC08091E80042
:100C700082FFF2CF80E0089582E0089583E0089536
:100C800081E00895982F973068F59093E9009817C0
:100C900039F07091EC002091ED005091F00003C00C
:100CA000242F762F50E021FD02C09F5FECCF3091C2
:100CB000EB003E7F3093EB003091ED003D7F3093B1
:100CC000ED003091EB0031603093EB007093EC005D
:100CD0002093ED005093F0002091EE0027FDE5CF2A
:100CE00080E008958F708093E90081E008950F936C
:100CF0001F93CF93DF93062FEC0110E0101771F1D3
:100D00006881611103C01F5F2596F8CF2C81A981EE
:100D1000BA819B81862F8F70873010F080E01FC0D2
:100D2000223010F442E001C046E0E8E0F0E020E0CC
:100D3000EA17FB0720F42F5FEE0FFF1FF9CF229574
:100D4000207F422B50E4959F90011124661F662757
:100D5000661F622B97DF8111D6CFE0CF81E0DF9154
:100D6000CF911F910F91089580910D0287FF11C0BF
:100D70008091E80082FD05C080910C028111F8CFBE
:100D800011C08091E8008B770BC080910C02882302
:100D900049F08091E80080FFF8CF8091E8008E77DD
:100DA0008093E80008952091E4003091E50095E6F5
:100DB0004091EC00842F817040FF23C08091E800B7
:100DC00080FD1DC080910C02882399F0853099F038
:100DD0008091EB0085FD11C04091E4005091E50049
:100DE0002417350729F3915011F09A01E1CF84E0DF
:100DF000089582E0089583E0089581E0089580E0F9
:100E000008954091E80042FFDDCF08950F931F93AE
:100E1000CF93DF934BD052D0C8EDD0E088818F774D
:100E2000888388818068888388818F7D888319BCC6
:100E300010920C021092080210920A0210920902FB
:100E400000EE10E0F80180818B7F808388818160D3
:100E5000888342E060E080E015DFE1EEF0E0808131
:100E60008E7F8083E2EEF0E08081816080838081EC
:100E700088608083F80180818E7F80838881806193
:100E80008883DF91CF911F910F910895E8EDF0E0F5
:100E900080818F7E8083E7EDF0E0808181608083B8
:100EA00084E082BF81E080930B02B0CFE8EDF0E0F8
:100EB00080818E7F80831092E20008951092DA0084
:100EC0001092E10008951F920F920FB60F92112415
:100ED0002F933F934F935F936F937F938F939F9342
:100EE000AF93BF93EF93FF938091E10082FF0AC01D
:100EF0008091E20082FF06C08091E1008B7F8093A9
:100F0000E10050D28091DA0080FF1DC08091D800AE
:100F100080FF19C08091DA008E7F8093DA00809183
:100F2000D90080FF0CC080E189BD82E189BD09B490
:100F300000FEFDCF81E080930C0218DB04C019BCD9
:100F400010920C0214DB8091E10080FF18C08091A8
:100F5000E20080FF14C08091E2008E7F8093E20067
:100F60008091E20080618093E2008091D8008062ED
:100F70008093D80019BC85E080930C0213D2809135
:100F8000E10084FF2FC08091E20084FF2BC080E14C
:100F900089BD82E189BD09B400FEFDCF8091D800F2
:100FA0008F7D8093D8008091E1008F7E8093E10057
:100FB0008091E2008F7E8093E2008091E200816068
:100FC0008093E20080910802882311F084E007C03A
:100FD0008091E30087FD02C081E001C083E080933F
:100FE0000C02E0D18091E10083FF27C08091E200F4
:100FF00083FF23C08091E100877F8093E10082E03E
:1010000080930C02109208028091E1008E7F809301
:10101000E1008091E2008E7F8093E2008091E20007
:1010200080618093E20042E060E080E02BDE80910E
:10103000F00088608093F000B5D1FF91EF91BF91EF
:10104000AF919F918F917F916F915F914F913F9160
:101050002F910F900FBE0F901F9018951F920F9217
:101060000FB60F9211242F933F934F935F936F937B
:101070007F938F939F93AF93BF93CF93DF93EF9320
:10108000FF93C091E900CF708091EC00D82FD17010
:1010900080FDD0E81092E9008091F000877F809376
:1010A000F00078941ED01092E9008091F0008860E2
:1010B0008093F000CD2BCF70C093E900FF91EF91AA
:1010C000DF91CF91BF91AF919F918F917F916F9160
:1010D0005F914F913F912F910F900FBE0F901F90F6
:1010E00018951F93CF93DF93CDB7DEB7AA970FB6AE
:1010F000F894DEBF0FBECDBFEDE0F2E08091F100CD
:10110000819322E0E531F207C9F735DA8091E800F2
:1011100083FF30C180910D0290910E02953009F449
:1011200083C030F49130A9F168F0933091F122C17D
:10113000983009F4EFC0993009F4FBC0963009F0FB
:1011400019C194C0803821F0823809F013C108C059
:101150008091090290910A02992389F082600FC060
:10116000809111028F70873008F004C18093E900EC
:101170008091EB0085FB882780F91092E90090911F
:10118000E800977F9093E8008093F1001092F100BF
:10119000CCC0282F2D7F09F0EDC0882319F08230B4
:1011A00061F0E8C080910F02813009F0E3C0933014
:1011B00009F080E080930A022EC080910F02811115
:1011C0002AC0809111028F702FEF280F263008F06F
:1011D000D1C08093E9002091EB0020FF1CC0933028
:1011E00021F48091EB00806214C09091EB0090613B
:1011F0009093EB0021E030E0A90102C0440F551F9D
:101200008A95E2F74093EA001092EA008091EB00A1
:1012100088608093EB001092E9008091E800877F5E
:101220008093E800A1DDA6C08111A4C010910F0237
:101230001F778091E3008078812B8093E300809179
:10124000E800877F8093E8008FDD8091E80080FFD1
:10125000FCCF8091E30080688093E300111102C00D
:1012600082E001C083E080930C0284C08058823009
:1012700008F080C080910F02909110028C3D53E0E5
:10128000950771F583E08A838AE289834FB7F894E2
:10129000DE01139620E03EE051E2E32FF0E05093B0
:1012A0005700E49120FF03C0E295EF703F5FEF70BD
:1012B0008E2F90E0EA3010F0C79601C0C0968D9353
:1012C0009D932F5F243149F74FBF8091E800877FBE
:1012D0008093E8006AE270E0CE01019614DC14C04D
:1012E0006091110270911202AE014F5F5F4FDBDB24
:1012F000BC01892B09F43EC09091E800977F909340
:10130000E80089819A815DDC8091E8008B77809389
:10131000E80030C0803871F58091E800877F8093C5
:10132000E800809108028093F1008091E8008E77B8
:1013300077CF81111FC080910F02909110029927E1
:101340000297C4F48091E800877F8093E800809141
:101350000F028093080208DD80910802811106C007
:101360008091E30087FD02C081E001C084E08093AA
:101370000C02FED88091E80083FF0AC08091E8004B
:10138000877F8093E8008091EB0080628093EB0080
:10139000AA960FB6F894DEBF0FBECDBFDF91CF91F6
:1013A0001F9108950895CF9380910C02882399F09E
:1013B000C091E900CF709091EC00892F817090FD71
:1013C00080E8C82B1092E9008091E80083FD89DE57
:1013D000CF70C093E900CF910895CF93DF93EC01D4
:1013E000FC0170968BE0DF011D928A95E9F782E09F
:1013F0008C83898783E08E8761E0CE01019677DC5C
:10140000882361F061E0CE01069671DC882331F01B
:1014100061E0CE010B96DF91CF9169CC80E0DF9146
:10142000CF9108950F931F93CF9320910C022430F6
:10143000F9F4FC010489158926893789012B022BCF
:10144000032BB1F0C62F81818F708093E9008091CA
:10145000E80085FF04C0C093F10080E00AC08091DD
:10146000E8008E778093E8009EDC8823A1F301C01A
:1014700082E0CF911F910F910895FB01682F848521
:101480009585D0DF21E030E0811102C020E030E01E
:1014900088279927821B930B089520910C022430F2
:1014A00041F5FC014489558966897789452B462B8E
:1014B000472BF9F081818F708093E9002091F30030
:1014C0008091F20090E0922B892B89F09091E800B6
:1014D0008091E8008E778093E80095FD08C063DC7A
:1014E000811108C08091E8008E778093E80080E049
:1014F000089582E0089520910C02243089F4FC01C3
:101500004489558966897789452B462B472B41F0BD
:1015100021812F702093E9002091E80020FDBDCFAC
:10152000089520910C02243019F08FEF9FEF089559
:10153000FC014489558966897789452B462B472BC1
:10154000A1F386818F708093E9008091E80082FF8B
:10155000ECCF2091F3008091F20090E0922B892B48
:1015600021F02091F10030E002C02FEF3FEF4091D9
:10157000F3008091F20090E0942B892B29F4809164
:10158000E8008B778093E800C9010895FC01848509
:101590009585C7DF97FF02C08EEF9FEF0895FB018F
:1015A0002EE0DB011D922A95E9F723E023832DE34A
:1015B0003AE03187208726EC3AE033872287958707
:1015C000848708950895CF93DF93EC018091E8001C
:1015D00083FFA7C0888190E0209111023091120210
:1015E0002817390709F09DC080910E02813261F001
:1015F00020F4803209F43EC094C0823209F46CC0F9
:10160000833209F47EC08DC080910D02813A09F0C9
:1016100088C08091E800877F8093E8008091E8008F
:1016200080FFFCCF8C899D89AE89BF898093F100B2
:10163000492F5A2F6B2F77274093F100AD01662772
:1016400077274093F1008B2F9927AA27BB278093F8
:10165000F100888D8093F100898D8093F1008A8D4F
:101660008093F1008091E8008E778093E800DF910D
:10167000CF917ACB80910D02813209F052C08091D6
:10168000E800877F8093E8008091E80082FD05C034
:1016900080910C028111F8CF44C03091F10020916B
:1016A000F1009091F1008091F1003C8B2D8B9E8B8D
:1016B0008F8B8091F100888F8091F100898F8091CC
:1016C000F1008A8F8091E8008B778093E8004CDBF3
:1016D000CE01DF91CF9176CF80910D02813209F555
:1016E0008091E800877F8093E8003EDB80910F02C5
:1016F00090911002998B888BCE01DF91CF910C9441
:10170000BF0280910D02813261F48091E800877FF1
:101710008093E80029DB60910F02CE01DF91CF9129
:1017200051CFDF91CF9108955058BB27AA270ED0F3
:1017300044C135D130F03AD120F031F49F3F11F45B
:101740001EF42AC10EF4E095E7FB20C1E92F46D133
:1017500080F3BA17620773078407950718F071F4CE
:101760009EF55EC10EF4E0950B2EBA2FA02D0B0155
:10177000B90190010C01CA01A0011124FF27591BD6
:1017800099F0593F50F4503E68F11A16F040A22FDC
:10179000232F342F4427585FF3CF4695379527954D
:1017A000A795F0405395C9F77EF41F16BA0B620B4C
:1017B000730B840BBAF09150A1F0FF0FBB1F661F93
:1017C000771F881FC2F70EC0BA0F621F731F841FD6
:1017D00048F4879577956795B795F7959E3F08F0FC
:1017E000B3CF9395880F08F09927EE0F97958795BB
:1017F0000895A8D008F481E008950CD0DEC0D6D0BA
:1018000040F0CDD030F021F45F3F19F0BFC051114E
:1018100008C1C2C0E3D098F39923C9F35523B1F3AB
:10182000951B550BBB27AA2762177307840738F04F
:101830009F5F5F4F220F331F441FAA1FA9F333D0AE
:101840000E2E3AF0E0E830D091505040E695001C62
:10185000CAF729D0FE2F27D0660F771F881FBB1F1E
:10186000261737074807AB07B0E809F0BB0B802DF8
:10187000BF01FF2793585F4F2AF09E3F510568F044
:1018800085C0CFC05F3FECF3983EDCF3869577953B
:101890006795B795F7959F5FC9F7880F911D969546
:1018A000879597F90895E1E0660F771F881FBB1FA2
:1018B000621773078407BA0720F0621B730B840B4F
:1018C000BA0BEE1F88F7E0950895E89409C097FBDE
:1018D0003EF490958095709561957F4F8F4F9F4F07
:1018E0009923A9F0F92F96E9BB279395F69587954B
:1018F00077956795B795F111F8CFFAF4BB0F11F40E
:1019000060FF1BC06F5F7F4F8F4F9F4F16C08823B4
:1019100011F096E911C0772321F09EE8872F762FEA
:1019200005C0662371F096E8862F70E060E02AF02B
:101930009A95660F771F881FDAF7880F9695879517
:1019400097F90895990F0008550FAA0BE0E8FEEFEC
:1019500016161706E807F907C0F012161306E40773
:10196000F50798F0621B730B840B950B39F40A266C
:1019700061F0232B242B252B21F408950A2609F44A
:10198000A140A6958FEF811D811D089597F99F674E
:1019900080E870E060E008959FEF80EC08950024F7
:1019A0000A941616170618060906089500240A94C4
:1019B00012161306140605060895092E0394000C4A
:1019C00011F4882352F0BB0F40F4BF2B11F460FFD9
:1019D00004C06F5F7F4F8F4F9F4F089557FD905802
:1019E000440F551F59F05F3F71F04795880F97FBE3
:1019F000991F61F09F3F79F087950895121613069D
:101A00001406551FF2CF4695F1DF08C016161706CB
:101A10001806991FF1CF8695710561050894089500
:101A2000E894BB2766277727CB0197F908958ADFCB
:101A300008F48FEF08950BD0C0CFB1DF28F0B6DFE8
:101A400018F0952309F0A2CFA7CF1124EACFC6DF63
:101A5000A0F3959FD1F3950F50E0551F629FF001C1
:101A6000729FBB27F00DB11D639FAA27F00DB11D1A
:101A7000AA1F649F6627B00DA11D661F829F2227A3
:101A8000B00DA11D621F739FB00DA11D621F839F2A
:101A9000A00D611D221F749F3327A00D611D231F00
:101AA000849F600D211D822F762F6A2F11249F574E
:101AB00050408AF0E1F088234AF0EE0FFF1FBB1F71
:101AC000661F771F881F91505040A9F79E3F510510
:101AD00070F05CCFA6CF5F3FECF3983EDCF38695C9
:101AE00077956795B795F795E7959F5FC1F7FE2BBB
:101AF000880F911D9695879597F90895A0E1B0E01C
:101B0000E3E8FDE059C77C011B016A01FC01178273
:101B10001682838181FF2BC39E012F5F3F4F3901C6
:101B2000F7019381F10193FD859193FF81911F014D
:101B3000882309F418C3853239F493FD859193FF06
:101B400081911F01853239F4B70190E00E94681637
:101B500056016501E5CF10E0512C912CFFE1F915FC
:101B6000D8F08B3279F038F4803279F08332A1F4F6
:101B7000F92DF0612EC08D3261F0803369F4292D8A
:101B800021602DC0392D3260932E892D8460982ECE
:101B90002AC0E92DE86015C097FC2DC020ED280F64
:101BA0002A3088F496FE06C03AE0139F200D1124D7
:101BB000122F19C08AE0589E200D1124522EE92DB3
:101BC000E0629E2E10C08E3231F496FCCCC2F92D0C
:101BD000F0649F2E08C08C3621F4292D2068922EA7
:101BE00002C0883641F4F10193FD859193FF819104
:101BF0001F018111B3CF9BEB980F933020F4992DE7
:101C00009061805E07C09BE9980F933008F059C13E
:101C1000992D9F7E96FF16E09F73992E853619F4B5
:101C20009064992E08C0863621F4392F3068932E9F
:101C300002C01111115097FE07C01C3350F4442408
:101C40004394410E27E00BC0183038F027E017E02E
:101C500005C027E09CE3492E02C0212F412C5601EC
:101C600084E0A80EB11CF6016081718182819381AC
:101C7000042DA301D8D66C01F981FC87F0FF02C0C6
:101C8000F3FF06C091FC06C092FE06C000E205C04C
:101C90000DE203C00BE201C000E08C858C7019F0EE
:101CA000011143C280C297FE10C04C0CFC85F4FFAA
:101CB00004C08A81813309F44A94141474F528E02D
:101CC000241578F588E0482E2CC096FC2AC0812F78
:101CD00090E08C159D059CF03CEFC3163FEFD306BA
:101CE00074F0892D8068982E0AC0E2E0F0E0EC0FD5
:101CF000FD1FE10FF11D8081803319F41150111186
:101D0000F4CF97FE0EC044244394410E812F90E0FF
:101D1000C816D9062CF41C1904C04424439401C0ED
:101D200010E097FE06C01C141D0434F4C601019691
:101D300005C085E090E002C081E090E001110196CD
:101D4000112331F0212F30E02F5F3F4F820F931F7F
:101D5000252D30E08217930714F4581A01C0512C36
:101D6000892D897041F4552031F0B70180E290E06F
:101D7000AFD75A94F8CF002321F0B701802F90E01D
:101D8000A7D793FC08C0552031F0B70180E390E05D
:101D90009FD75A94F8CF97FE4AC04601D7FE02C09B
:101DA000812C912CC60188199909F301E80FF91FBC
:101DB000FE87ED87960124193109388B2F87012F73
:101DC00010E01195019511093FEF8316930621F458
:101DD000B7018EE290E07CD7C814D9044CF08F850F
:101DE00098898815990524F4ED85FE85818101C0C7
:101DF00080E3F1E08F1A91082D853E852F5F3F4FDC
:101E00003E872D878016910624F0B70190E060D7B9
:101E1000DBCFC814D90441F49A81963320F495336A
:101E200019F43C8534FF81E3B70190E048C08A8112
:101E3000813319F09C859F7E9C87B70190E048D73D
:101E4000111105C094FC16C085E690E015C0B701DD
:101E50008EE290E03DD71E5F82E001E0080FF301C3
:101E6000E80FF11D8081B70190E032D7802F011378
:101E7000F4CFE8CF85E490E0B7012AD7D7FC06C0BD
:101E8000C114D10441F4EC85E4FF05C0D194C194A0
:101E9000D1088DE201C08BE2B70190E019D780E351
:101EA0002AE0C216D1042CF08F5FFAE0CF1AD108D5
:101EB000F7CFB70190E00CD7B701C601C09608D79D
:101EC00049C1833631F0833779F0833509F052C048
:101ED0001FC0560132E0A30EB11CF6018081898338
:101EE00001E010E0630111C05601F2E0AF0EB11C39
:101EF000F601C080D18096FE03C0612F70E002C061
:101F00006FEF7FEFC6019BD68C01F92DFF7713C0D1
:101F1000560122E0A20EB11CF601C080D18096FECF
:101F200003C0612F70E002C06FEF7FEFC6016ED675
:101F30008C01F92DF0689F2EF3FD18C0852D90E0DF
:101F40000817190798F4B70180E290E0C1D65A94B7
:101F5000F5CFF60197FC859197FE81916F01B7014E
:101F600090E0B6D651105A9401501109011511058F
:101F700081F7F0C0843611F0893659F5560197FE85
:101F800009C024E0A20EB11CF6016081718182813A
:101F900093810AC0F2E0AF0EB11CF601608171813D
:101FA000072E000C880B990BF92DFF769F2E97FFBB
:101FB00009C090958095709561957F4F8F4F9F4F89
:101FC000F0689F2E2AE030E0A3010DD7C82EC61876
:101FD0003EC0092D853721F40F7E2AE030E01DC078
:101FE000097F8F3691F018F4883559F0BCC08037DE
:101FF00019F0883711F0B7C0006104FF09C0046010
:1020000007C094FE08C0066006C028E030E005C0A6
:1020100020E130E002C020E132E0560107FF09C0B4
:1020200084E0A80EB11CF6016081718182819381E8
:1020300008C0F2E0AF0EB11CF6016081718180E052
:1020400090E0A301D0D6C82EC6180F77902E96FE2A
:102050000BC0092D0E7FC11650F494FE0AC092FCED
:1020600008C0092D0E7E05C0DC2C092D03C0DC2C18
:1020700001C0D12E04FF0DC0FE01EC0DF11D8081C9
:10208000803311F4097E09C002FF06C0D394D394B3
:1020900004C0802F867809F0D39403FD10C000FFA0
:1020A00006C01C2DD51478F4150D1D190CC0D514BF
:1020B00050F4B70180E290E00BD6D394F8CFD5145A
:1020C00010F45D1801C0512C04FF0FC0B70180E36C
:1020D00090E0FED502FF16C001FD03C088E790E046
:1020E00002C088E590E0B7010CC0802F867851F0DF
:1020F00001FF02C08BE201C080E207FD8DE2B70163
:1021000090E0E6D5C11630F4B70180E390E0E0D569
:102110001150F8CFCA94F301EC0DF11D8081B70185
:1021200090E0D6D5C110F6CF15C0F4E0F51550F506
:1021300084E0581A93FE1EC0011125C02C8523FF90
:1021400027C00CEA10E0392D3071932EF8018491EC
:10215000811121C0552009F4FCCCB70180E290E048
:10216000B7D55A94F7CFF7018681978123C08FEFB7
:102170009FEF20C0B70180E290E0AAD55A94511099
:10218000F9CFDACF512CB701802F90E0A1D5D6CF6F
:1021900000EB10E0D8CF91108052B70190E098D5B5
:1021A0000F5F1F4FD3CF23E0251510F483E0C1CF7D
:1021B000512CC4CF6096E2E11BC420FD09C0FC0194
:1021C00023FD05C022FF02C07383628351834083D5
:1021D000089544FD17C046FD17C0AB01BC01DA01EC
:1021E000FB01AA0FBB1FEE1FFF1F1094D1F74A0F70
:1021F0005B1F6E1F7F1FCB01BA01660F771F881F01
:10220000991F09C033E001C034E0660F771F881FB3
:10221000991F3150D1F7620F711D811D911D0895D5
:102220000F931F93CF93DF938C01C80113D5EC015B
:1022300097FD06C0D0D4892BC1F7B801CE01BAD51D
:10224000CE01DF91CF911F910F910895A0E0B0E0F2
:10225000EBE2F1E1B7C37C018B016A01D22FFAD422
:102260009C0133272B32310521F02D32310551F4F9
:10227000D0680150110911F480E064C0C701EAD4AC
:1022800097FDFACFCD2FCD7F2D2F207309F5803309
:10229000F9F4580181E0A81AB10809F440C0C70157
:1022A000D9D497FD3CC09C012F7D332728353105BB
:1022B00049F4C2640250110991F1C701CBD497FFD0
:1022C00007C02DC0D6FF02C0C26001C0C261850137
:1022D000812C912C540120ED280F283078F0C4FF78
:1022E00003C0B70167D518C02A3040F0C6FFF9CF48
:1022F0002F7D3FEE320F3630A0F727504C2FC5010F
:10230000B40167DF4B015C01C2600150110951F05B
:10231000C701A0D497FFDFCFC1FD04C0ADCF812C92
:10232000912C5401C7FF08C0B094A094909480945D
:10233000811C911CA11CB11C2C2FB501A401C6014C
:102340003CDF81E0CDB7DEB7ECE058C3A0E2B0E0FF
:10235000EBEAF1E133C35C014B017A018E010F5FBF
:102360001F4F680180E2F80111928A95E9F7F501A3
:10237000538040E050E0612C90E0712CA1E0B0E08F
:10238000F90153FC859153FE81918F01482E9F01E5
:10239000811103C080E090E094C08E3519F441159E
:1023A000510551F1672D70E0641775073CF48D35C8
:1023B00061F18D3219F4992311F103C0992309F4C5
:1023C0006BC0842D869586958695F601E80FF11DE4
:1023D000842D87708D0102C0000F111F8A95E2F7CE
:1023E000C8019081892B8083641459F0461410F43D
:1023F0004394E7CF4A94E5CF7724739403C091E0E8
:1024000001C090E04F5F5F4FBBCF992319F08E81E1
:1024100080628E83711003C07724739419C0F60113
:102420009E012F5D3F4F8081809581932E173F073E
:10243000D1F7F2CFE114F10431F0F7018083B70155
:102440006F5F7F4F7B0171E0871A9108712CE9F073
:10245000C50100D497FD17C0FC01FF2723E0F595C7
:10246000E7952A95E1F7EC0DFD1D208130E0AC01E8
:102470004770552702C0359527954A95E2F720FD0C
:10248000D9CFB50197D4711085CFE114F10411F0C3
:10249000F7011082C80115C0682F6695669566958C
:1024A000F601E60FF11D682F67708D0102C0000F65
:1024B000111F6A95E2F7B8017081672B6083682E5F
:1024C000A1CFA096E0E196C22F923F924F925F92E9
:1024D0006F927F929F92AF92BF92CF92DF92EF92D4
:1024E000FF920F931F93CF93DF936C018B011A011F
:1024F000B1D3EC0199278B32910529F08D9779F4AE
:1025000030E8932E01C0912C0150110911F480E0A4
:10251000FEC0C6019FD3EC0197FF02C0F8CF912CFB
:10252000CE0161D38936910531F08E36910581F562
:10253000C8E6D2E002C0CBE6D2E02196FE01319798
:10254000B490BB20B1F00150110979F0C60182D3DB
:102550007C0197FD0AC047D39927EB2DF0E08E1739
:102560009F0759F3B601C70125D4CE56D24079F65C
:1025700003C0CB56D24029F080E090E0A0E8BFE74E
:1025800004C080E090E0A0ECBFE7BC01CD01AFC08B
:10259000412C512C3201E12CF12C2C2F20532A30CC
:1025A00008F5E92DE260BE2E892D887092FE06C0E6
:1025B00081111FC0FFEFEF1AFF0A1BC0882319F01B
:1025C00081E0E81AF10840E2C301B20102DE2B010A
:1025D0003C01683979498949994158F0F92DF660EB
:1025E000BF2E07C02E3F81F493FC0EC0292D28601A
:1025F000B22E0150110939F0C6012CD3EC019B2CED
:1026000097FFCBCF01C09B2C91FE81CFCE018F7D58
:1026100099278534910509F03EC0580181E0A81A38
:10262000B10809F474CFC60115D3EC0197FD6FCF43
:1026300099278B32910529F08D9761F4E92DE0619E
:102640009E2E5801F2E0AF1AB10809F460CFC6011E
:1026500001D3EC01CE01C0970A9708F058CF85014D
:10266000A12CB12CB501BB0C880B990B2C2F20533E
:1026700040E2AFDD5B010150110931F0C601EAD241
:10268000EC01C0970A9770F394FE03C0B194A19433
:10269000B108EA0CFB1C012B29F0D7FD03C0B601E1
:1026A000CE0188D3C301B20110D9F7FE06C0F19460
:1026B000E194F108C7E8D2E002C0CFE9D2E06E01B0
:1026C00028E1C21AD10800E210E0E016F10648F055
:1026D000FE012591359145915491ADD9E01AF10A49
:1026E000F4CF249716950795CC16DD0671F797FE63
:1026F00005C0DC01CB01B058BC01CD01211431046F
:1027000029F0F101608371838283938381E0DF91FB
:10271000CF911F910F91FF90EF90DF90CF90BF90DE
:10272000AF909F907F906F905F904F903F902F90D1
:102730000895A0E0B0E0EEE9F3E142C15C01EB01F5
:102740004A01FC0117821682612CF5010381FE010A
:1027500003FD859103FF8191182FEF01882309F470
:1027600000C190E038D2892B19F0C50159DDEDCFB9
:10277000153241F4FE0103FD159103FF1191EF01A4
:10278000153271F4C50166D297FDE9C0412F50E0C2
:102790009C01332724173507C1F2B5010BD3E1C0E3
:1027A0001A3241F403FD159103FF1191EF017724D3
:1027B000739401C0712CE12CF12C20ED210F2A30F3
:1027C00080F4F72DF2607F2EB70180E090E040E2C8
:1027D00000DD7B01FE0103FD159103FF1191EF0167
:1027E000ECCF71FE04C0E114F10421F4BAC0EE2470
:1027F000EA94FE2C183619F01C3661F014C0FE0164
:1028000003FD159103FF1191EF01183661F4872D37
:102810008860782E972D9460792EFE0103FD159126
:1028200003FF1191EF01112309F49BC0612F70E0A8
:1028300086E592E0E0D1892B09F493C070FC07C0D3
:10284000F401C080D180C40102964C0102C0C12CA9
:10285000D12C1E3649F4F5014681578160E070E0C5
:10286000272DC601AADC71CF1336B1F471FC03C069
:10287000EE24E394F12CC501EDD197FD70C0C11495
:10288000D10429F0F6018083C60101966C0191E024
:10289000E91AF10881F75FC01B3551F49E01A601CA
:1028A000B701C50153DDEC01892B09F054C04EC0BE
:1028B000C501B6DC97FD53C01F36C9F140F414368C
:1028C00091F11936B9F1183509F03AC028C013371B
:1028D000A9F018F4103719F133C0153721F1183762
:1028E000F1F02EC0C114D10429F0F6010083C60115
:1028F00001966C0191E0E91AF10859F0C501AAD1DD
:102900008C0197FD06C067D1892B61F3B501C80121
:1029100051D2C114D104F9F0F60110821CC0F72D78
:10292000F0647F2E07C0872D8062782E03C0972D1C
:102930009061792E272DA601B701C50187DC04C05F
:10294000A601B701C501C0DD811105C0F501838174
:10295000807329F406C070FCF8CE6394F6CE66202E
:1029600019F0862D90E002C08FEF9FEFCDB7DEB754
:10297000EEE042C0A1E21A2EAA1BBB1BFD010DC056
:10298000AA1FBB1FEE1FFF1FA217B307E407F5071F
:1029900020F0A21BB30BE40BF50B661F771F881FFB
:1029A000991F1A9469F760957095809590959B0191
:1029B000AC01BD01CF0108952F923F924F925F92DB
:1029C0006F927F928F929F92AF92BF92CF92DF923F
:1029D000EF92FF920F931F93CF93DF93CDB7DEB7A4
:1029E000CA1BDB0B0FB6F894DEBF0FBECDBF099438
:1029F0002A88398848885F846E847D848C849B848F
:102A0000AA84B984C884DF80EE80FD800C811B819C
:102A1000AA81B981CE0FD11D0FB6F894DEBF0FBECB
:102A2000CDBFED010895283008F027E03327DA0103
:102A3000990F311D87FD916000966105710539F48C
:102A400032602E5F3D9330E32A95E1F708959F3F72
:102A500030F080387105610509F03C5F3C5F3D93C3
:102A6000913008F08068911DDF93CF931F930F93EF
:102A7000FF92EF92192F987F9695E92F969596954C
:102A8000E90FFF27E25FFE4F99273327EE24FF244B
:102A9000A701E70105900894079428F4360FE71E74
:102AA000F81E491F511D660F771F881F991F069436
:102AB000A1F70590079428F4E70EF81E491F561F4A
:102AC000C11D770F881F991F661F0694A1F70590F7
:102AD000079428F4F80E491F561FC71FD11D880FF1
:102AE000991F661F771F0694A1F70590079420F49D
:102AF000490F561FC71FD81F990F661F771F881FC2
:102B00000694A9F784911095177041F0D695C79552
:102B100057954795F794E7941A95C1F7E4EBF0E0E1
:102B200068941590159135916591959105907FE286
:102B30007395E118F10A430B560BC90BD009C0F786
:102B4000E10CF11E431F561FC91FD01D7EF47033C8
:102B500011F48A95E6CFE894015030F0080F0AF49A
:102B60000027021708F4202F2395022F7A3328F02C
:102B700079E37D932A95E9F710C07D932A9589F62C
:102B8000069497956795379517951794E118F10A6C
:102B9000430B560BC90BD00998F023957E91739582
:102BA0007A3308F070E37C932013B8F77E9170615C
:102BB0007D9330F0839571E37D9370E32A95E1F77F
:102BC0001124EF90FF900F911F91CF91DF919927E2
:102BD00087FD90950895911164C1803219F0895054
:102BE0008550D0F708959111089581548A5108F4C1
:102BF000805E855A0895FC010590061621F000209C
:102C0000D9F7C00108953197CF010895FC010590CF
:102C1000615070400110D8F7809590958E0F9F1FDE
:102C20000895FB01DC014150504030F08D9101903E
:102C3000801919F40020B9F7881B990B0895FC013D
:102C40006150704001900110D8F7809590958E0FDB
:102C50009F1F0895CF93DF93EC012B8120FF33C09A
:102C600026FF0AC02F7B2B838E819F8101969F8335
:102C70008E838A8190E029C022FF0FC0E881F9810C
:102C80008081082E000C990B009719F420622B8389
:102C90001AC03196F983E8830EC0EA85FB85099551
:102CA00097FF09C02B81019611F080E201C080E1FD
:102CB000822B8B8308C02E813F812F5F3F4F3F8344
:102CC0002E83992702C08FEF9FEFDF91CF91089558
:102CD0000F931F93CF93DF93FB01238121FD03C04B
:102CE0008FEF9FEF2CC022FF16C0468157812481B1
:102CF00035814217530744F4A081B1819D012F5FB4
:102D00003F4F318320838C93268137812F5F3F4F44
:102D10003783268314C08B01EC01FB010084F1850D
:102D2000E02D0995892BE1F6D80116968D919C919D
:102D30001797019617969C938E931697CE01DF9165
:102D4000CF911F910F910895AEE0B0E0E9EAF6E16E
:102D500041CE0D891E8986E08C831A8309838FEF0B
:102D60009FE79E838D83AE01475E5F4F6F89788DAD
:102D7000CE0101960E947E0DEF81F885E00FF11FD4
:102D800010822E96E4E042CEAEE0B0E0E9ECF6E14F
:102D900023CE85E08C838B899C899A838983AE01BD
:102DA000495E5F4F6D897E89CE010196C2DC2E9609
:102DB000E2E02ECEFB01238120FF12C026FD10C0D1
:102DC0008F3F3FEF930761F082832F7D2064238341
:102DD0002681378121503109378326839927089529
:102DE0008FEF9FEF0895FA01AA27283051F1203183
:102DF00081F1E8946F936E7F6E5F7F4F8F4F9F4F8F
:102E0000AF4FB1E03ED0B4E03CD0670F781F891FD0
:102E10009A1FA11D680F791F8A1F911DA11D6A0F9E
:102E2000711D811D911DA11D20D009F468943F9151
:102E30002AE0269F11243019305D3193DEF6CF0150
:102E40000895462F4770405D4193B3E00FD0C9F716
:102E5000F6CF462F4F70405D4A3318F0495D31FD83
:102E60004052419302D0A9F7EACFB4E0A6959795D6
:102E7000879577956795BA95C9F7009761057105AC
:102E800008959B01AC010A2E0694579547953795F6
:102E90002795BA95C9F7620F731F841F951FA01D50
:102EA0000895992788270895A8E1B0E042E050E00E
:102EB00005C012D0272F11C0DC01CB01FC01F9990C
:102EC000FECF06C0F2BDE1BDF89A319600B40D9276
:102ED00041505040B8F70895262FF999FECF1FBAF8
:102EE00092BD81BD20BD0FB6F894FA9AF99A0FBE33
:082EF00001960895F894FFCF4C
:102EF8000083100000010410000001820800000196
:102F0800000000008025000000000854313A252EFA
:102F180033662054323A252E33662050313A2575CF
:102F28002050323A25752050333A2575204C313AD5
:102F38002564204C323A25640A004C31004C312F6C
:102F480025640A004C32004C322F25640A00535481
:0E2F5800004C44004C532F25642C25640A00C5
:00000001FF
